{"abi":[{"anonymous":false,"inputs":[{"indexed":true,"internalType":"address","name":"previousOwner","type":"address"},{"indexed":true,"internalType":"address","name":"newOwner","type":"address"}],"name":"OwnershipTransferred","type":"event"},{"inputs":[{"internalType":"address","name":"_token","type":"address"}],"name":"allowToken","outputs":[],"stateMutability":"nonpayable","type":"function"},{"inputs":[{"internalType":"uint256","name":"","type":"uint256"}],"name":"allowedTokens","outputs":[{"internalType":"address","name":"","type":"address"}],"stateMutability":"view","type":"function"},{"inputs":[{"internalType":"address","name":"_customer","type":"address"}],"name":"customerIsAllowed","outputs":[{"internalType":"bool","name":"","type":"bool"}],"stateMutability":"view","type":"function"},{"inputs":[{"internalType":"uint256","name":"","type":"uint256"}],"name":"customers","outputs":[{"internalType":"address","name":"","type":"address"}],"stateMutability":"view","type":"function"},{"inputs":[{"internalType":"address","name":"_token","type":"address"},{"internalType":"uint256","name":"_amount","type":"uint256"}],"name":"getConvertionRate","outputs":[{"internalType":"uint256","name":"","type":"uint256"}],"stateMutability":"view","type":"function"},{"inputs":[{"internalType":"address","name":"_token","type":"address"},{"internalType":"uint256","name":"_amount","type":"uint256"}],"name":"getRevenue","outputs":[],"stateMutability":"nonpayable","type":"function"},{"inputs":[{"internalType":"address","name":"_token","type":"address"}],"name":"getTokenValue","outputs":[{"internalType":"uint256","name":"","type":"uint256"},{"internalType":"uint256","name":"","type":"uint256"}],"stateMutability":"view","type":"function"},{"inputs":[],"name":"owner","outputs":[{"internalType":"address","name":"","type":"address"}],"stateMutability":"view","type":"function"},{"inputs":[{"internalType":"address","name":"","type":"address"}],"name":"payedTokenAmount","outputs":[{"internalType":"uint256","name":"","type":"uint256"}],"stateMutability":"view","type":"function"},{"inputs":[{"internalType":"address","name":"_token","type":"address"},{"internalType":"uint256","name":"_amount","type":"uint256"}],"name":"registerCustomer","outputs":[],"stateMutability":"nonpayable","type":"function"},{"inputs":[],"name":"renounceOwnership","outputs":[],"stateMutability":"nonpayable","type":"function"},{"inputs":[{"internalType":"address","name":"_token","type":"address"},{"internalType":"address","name":"_priceFeed","type":"address"}],"name":"setPriceFeed","outputs":[],"stateMutability":"nonpayable","type":"function"},{"inputs":[{"internalType":"address","name":"_token","type":"address"}],"name":"tokenIsAllowed","outputs":[{"internalType":"bool","name":"","type":"bool"}],"stateMutability":"nonpayable","type":"function"},{"inputs":[{"internalType":"address","name":"","type":"address"}],"name":"tokenPriceFeeds","outputs":[{"internalType":"address","name":"","type":"address"}],"stateMutability":"view","type":"function"},{"inputs":[{"internalType":"address","name":"newOwner","type":"address"}],"name":"transferOwnership","outputs":[],"stateMutability":"nonpayable","type":"function"}],"bytecode":"608060405234801561001057600080fd5b5061001a3361001f565b61006f565b600080546001600160a01b038381166001600160a01b0319831681178455604051919092169283917f8be0079c531659141344cd1fd0a4f28419497f9722a3daafe3b4186f6b6457e09190a35050565b610d818061007e6000396000f3fe608060405234801561001057600080fd5b50600436106100f55760003560e01c8063b53472ef11610097578063d86ff5c411610066578063d86ff5c41461021e578063dd5b846714610231578063f1c5d6c214610244578063f2fde38b1461026c57600080fd5b8063b53472ef146101bc578063bd9c47e3146101cf578063c0abda2a146101f8578063cf3f33811461020b57600080fd5b806381a17abb116100d357806381a17abb1461014757806384d2d402146101755780638da5cb5b14610198578063a8c3eb2b146101a957600080fd5b80635e5f2e26146100fa578063715018a61461012a57806376e1128614610134575b600080fd5b61010d610108366004610a0c565b61027f565b6040516001600160a01b0390911681526020015b60405180910390f35b6101326102a9565b005b610132610142366004610a41565b6102e8565b610167610155366004610a74565b60026020526000908152604090205481565b604051908152602001610121565b610188610183366004610a74565b610340565b6040519015158152602001610121565b6000546001600160a01b031661010d565b6101676101b7366004610a96565b6103aa565b6101326101ca366004610a74565b6103eb565b61010d6101dd366004610a74565b6001602052600090815260409020546001600160a01b031681565b61010d610206366004610a0c565b610467565b610132610219366004610a96565b610477565b61013261022c366004610a96565b610619565b61018861023f366004610a74565b6107af565b610257610252366004610a74565b610810565b60408051928352602083019190915201610121565b61013261027a366004610a74565b610921565b6004818154811061028f57600080fd5b6000918252602090912001546001600160a01b0316905081565b6000546001600160a01b031633146102dc5760405162461bcd60e51b81526004016102d390610ac0565b60405180910390fd5b6102e660006109bc565b565b6000546001600160a01b031633146103125760405162461bcd60e51b81526004016102d390610ac0565b6001600160a01b03918216600090815260016020526040902080546001600160a01b03191691909216179055565b6000805b6003548110156103a157826001600160a01b03166003828154811061036b5761036b610af5565b6000918252602090912001546001600160a01b0316141561038f5750600192915050565b8061039981610b21565b915050610344565b50600092915050565b60008060006103b885610810565b90925090506000826103cb83600a610c20565b6103d59087610c2c565b6103df9190610c4b565b93505050505b92915050565b6000546001600160a01b031633146104155760405162461bcd60e51b81526004016102d390610ac0565b600480546001810182556000919091527f8a35acfbc15ff81a39ae7d344fd709f28e8600b4aa8c65c6b64bfe7fe36bd19b0180546001600160a01b0319166001600160a01b0392909216919091179055565b6003818154811061028f57600080fd5b61048a826802b5e3af16b18800006103aa565b8110156104d95760405162461bcd60e51b815260206004820152601b60248201527f596f75206861766520746f20706179206f7665722035305553442e000000000060448201526064016102d3565b6104e2826107af565b61052e5760405162461bcd60e51b815260206004820152601a60248201527f5468697320746f6b656e206973206e6f7420616c6c6f7765642e00000000000060448201526064016102d3565b6040516323b872dd60e01b8152336004820152306024820152604481018290526001600160a01b038316906323b872dd906064016020604051808303816000875af1158015610581573d6000803e3d6000fd5b505050506040513d601f19601f820116820180604052508101906105a59190610c6d565b506001600160a01b038216600090815260026020526040812080548392906105ce908490610c8f565b9091555050600380546001810182556000919091527fc2575a0e9e593c00f959f8c92f12db2869c3395a3b0502d05e2516446f71f85b0180546001600160a01b031916331790555050565b6000546001600160a01b031633146106435760405162461bcd60e51b81526004016102d390610ac0565b6001600160a01b0382166000908152600260205260409020548111156106b75760405162461bcd60e51b815260206004820152602360248201527f596f7520646f6e277420686176652074686520616d6f756e74206f6620746f6b60448201526232b71760e91b60648201526084016102d3565b6106c0826107af565b61070c5760405162461bcd60e51b815260206004820152601a60248201527f5468697320746f6b656e206973206e6f7420616c6c6f7765642e00000000000060448201526064016102d3565b60405163a9059cbb60e01b8152336004820152602481018290526001600160a01b0383169063a9059cbb906044016020604051808303816000875af1158015610759573d6000803e3d6000fd5b505050506040513d601f19601f8201168201806040525081019061077d9190610c6d565b506001600160a01b038216600090815260026020526040812080548392906107a6908490610ca7565b90915550505050565b6000805b6004548110156103a157826001600160a01b0316600482815481106107da576107da610af5565b6000918252602090912001546001600160a01b031614156107fe5750600192915050565b8061080881610b21565b9150506107b3565b6001600160a01b03808216600090815260016020526040808220548151633fabe5a360e21b8152915192938493911691829184918291829182918291879163feaf968c9160048082019260a0929091908290030181865afa158015610879573d6000803e3d6000fd5b505050506040513d601f19601f8201168201806040525081019061089d9190610cd8565b945094509450945094506000866001600160a01b031663313ce5676040518163ffffffff1660e01b8152600401602060405180830381865afa1580156108e7573d6000803e3d6000fd5b505050506040513d601f19601f8201168201806040525081019061090b9190610d28565b949b60ff9095169a509398505050505050505050565b6000546001600160a01b0316331461094b5760405162461bcd60e51b81526004016102d390610ac0565b6001600160a01b0381166109b05760405162461bcd60e51b815260206004820152602660248201527f4f776e61626c653a206e6577206f776e657220697320746865207a65726f206160448201526564647265737360d01b60648201526084016102d3565b6109b9816109bc565b50565b600080546001600160a01b038381166001600160a01b0319831681178455604051919092169283917f8be0079c531659141344cd1fd0a4f28419497f9722a3daafe3b4186f6b6457e09190a35050565b600060208284031215610a1e57600080fd5b5035919050565b80356001600160a01b0381168114610a3c57600080fd5b919050565b60008060408385031215610a5457600080fd5b610a5d83610a25565b9150610a6b60208401610a25565b90509250929050565b600060208284031215610a8657600080fd5b610a8f82610a25565b9392505050565b60008060408385031215610aa957600080fd5b610ab283610a25565b946020939093013593505050565b6020808252818101527f4f776e61626c653a2063616c6c6572206973206e6f7420746865206f776e6572604082015260600190565b634e487b7160e01b600052603260045260246000fd5b634e487b7160e01b600052601160045260246000fd5b6000600019821415610b3557610b35610b0b565b5060010190565b600181815b80851115610b77578160001904821115610b5d57610b5d610b0b565b80851615610b6a57918102915b93841c9390800290610b41565b509250929050565b600082610b8e575060016103e5565b81610b9b575060006103e5565b8160018114610bb15760028114610bbb57610bd7565b60019150506103e5565b60ff841115610bcc57610bcc610b0b565b50506001821b6103e5565b5060208310610133831016604e8410600b8410161715610bfa575081810a6103e5565b610c048383610b3c565b8060001904821115610c1857610c18610b0b565b029392505050565b6000610a8f8383610b7f565b6000816000190483118215151615610c4657610c46610b0b565b500290565b600082610c6857634e487b7160e01b600052601260045260246000fd5b500490565b600060208284031215610c7f57600080fd5b81518015158114610a8f57600080fd5b60008219821115610ca257610ca2610b0b565b500190565b600082821015610cb957610cb9610b0b565b500390565b805169ffffffffffffffffffff81168114610a3c57600080fd5b600080600080600060a08688031215610cf057600080fd5b610cf986610cbe565b9450602086015193506040860151925060608601519150610d1c60808701610cbe565b90509295509295909350565b600060208284031215610d3a57600080fd5b815160ff81168114610a8f57600080fdfea26469706673582212203cc02eff266dcc6dc8f48e67b8fba7e3e9058d0bce9d376f315a5d71433aba6564736f6c634300080a0033","bytecodeSha1":"3ea73b40c5f4b2e7aaf4cfbcebaffde03810e150","compiler":{"evm_version":"istanbul","optimizer":{"enabled":true,"runs":200},"version":"0.8.10+commit.fc410830"},"contractName":"CryptCurrencyRate","language":"Solidity","natspec":{"kind":"dev","methods":{"owner()":{"details":"Returns the address of the current owner."},"renounceOwnership()":{"details":"Leaves the contract without owner. It will not be possible to call `onlyOwner` functions anymore. Can only be called by the current owner. NOTE: Renouncing ownership will leave the contract without an owner, thereby removing any functionality that is only available to the owner."},"transferOwnership(address)":{"details":"Transfers ownership of the contract to a new account (`newOwner`). Can only be called by the current owner."}},"version":1},"opcodes":"PUSH1 0x80 PUSH1 0x40 MSTORE CALLVALUE DUP1 ISZERO PUSH2 0x10 JUMPI PUSH1 0x0 DUP1 REVERT JUMPDEST POP PUSH1 0x4 CALLDATASIZE LT PUSH2 0xF5 JUMPI PUSH1 0x0 CALLDATALOAD PUSH1 0xE0 SHR DUP1 PUSH4 0xB53472EF GT PUSH2 0x97 JUMPI DUP1 PUSH4 0xD86FF5C4 GT PUSH2 0x66 JUMPI DUP1 PUSH4 0xD86FF5C4 EQ PUSH2 0x21E JUMPI DUP1 PUSH4 0xDD5B8467 EQ PUSH2 0x231 JUMPI DUP1 PUSH4 0xF1C5D6C2 EQ PUSH2 0x244 JUMPI DUP1 PUSH4 0xF2FDE38B EQ PUSH2 0x26C JUMPI PUSH1 0x0 DUP1 REVERT JUMPDEST DUP1 PUSH4 0xB53472EF EQ PUSH2 0x1BC JUMPI DUP1 PUSH4 0xBD9C47E3 EQ PUSH2 0x1CF JUMPI DUP1 PUSH4 0xC0ABDA2A EQ PUSH2 0x1F8 JUMPI DUP1 PUSH4 0xCF3F3381 EQ PUSH2 0x20B JUMPI PUSH1 0x0 DUP1 REVERT JUMPDEST DUP1 PUSH4 0x81A17ABB GT PUSH2 0xD3 JUMPI DUP1 PUSH4 0x81A17ABB EQ PUSH2 0x147 JUMPI DUP1 PUSH4 0x84D2D402 EQ PUSH2 0x175 JUMPI DUP1 PUSH4 0x8DA5CB5B EQ PUSH2 0x198 JUMPI DUP1 PUSH4 0xA8C3EB2B EQ PUSH2 0x1A9 JUMPI PUSH1 0x0 DUP1 REVERT JUMPDEST DUP1 PUSH4 0x5E5F2E26 EQ PUSH2 0xFA JUMPI DUP1 PUSH4 0x715018A6 EQ PUSH2 0x12A JUMPI DUP1 PUSH4 0x76E11286 EQ PUSH2 0x134 JUMPI JUMPDEST PUSH1 0x0 DUP1 REVERT JUMPDEST PUSH2 0x10D PUSH2 0x108 CALLDATASIZE PUSH1 0x4 PUSH2 0xA0C JUMP JUMPDEST PUSH2 0x27F JUMP JUMPDEST PUSH1 0x40 MLOAD PUSH1 0x1 PUSH1 0x1 PUSH1 0xA0 SHL SUB SWAP1 SWAP2 AND DUP2 MSTORE PUSH1 0x20 ADD JUMPDEST PUSH1 0x40 MLOAD DUP1 SWAP2 SUB SWAP1 RETURN JUMPDEST PUSH2 0x132 PUSH2 0x2A9 JUMP JUMPDEST STOP JUMPDEST PUSH2 0x132 PUSH2 0x142 CALLDATASIZE PUSH1 0x4 PUSH2 0xA41 JUMP JUMPDEST PUSH2 0x2E8 JUMP JUMPDEST PUSH2 0x167 PUSH2 0x155 CALLDATASIZE PUSH1 0x4 PUSH2 0xA74 JUMP JUMPDEST PUSH1 0x2 PUSH1 0x20 MSTORE PUSH1 0x0 SWAP1 DUP2 MSTORE PUSH1 0x40 SWAP1 KECCAK256 SLOAD DUP2 JUMP JUMPDEST PUSH1 0x40 MLOAD SWAP1 DUP2 MSTORE PUSH1 0x20 ADD PUSH2 0x121 JUMP JUMPDEST PUSH2 0x188 PUSH2 0x183 CALLDATASIZE PUSH1 0x4 PUSH2 0xA74 JUMP JUMPDEST PUSH2 0x340 JUMP JUMPDEST PUSH1 0x40 MLOAD SWAP1 ISZERO ISZERO DUP2 MSTORE PUSH1 0x20 ADD PUSH2 0x121 JUMP JUMPDEST PUSH1 0x0 SLOAD PUSH1 0x1 PUSH1 0x1 PUSH1 0xA0 SHL SUB AND PUSH2 0x10D JUMP JUMPDEST PUSH2 0x167 PUSH2 0x1B7 CALLDATASIZE PUSH1 0x4 PUSH2 0xA96 JUMP JUMPDEST PUSH2 0x3AA JUMP JUMPDEST PUSH2 0x132 PUSH2 0x1CA CALLDATASIZE PUSH1 0x4 PUSH2 0xA74 JUMP JUMPDEST PUSH2 0x3EB JUMP JUMPDEST PUSH2 0x10D PUSH2 0x1DD CALLDATASIZE PUSH1 0x4 PUSH2 0xA74 JUMP JUMPDEST PUSH1 0x1 PUSH1 0x20 MSTORE PUSH1 0x0 SWAP1 DUP2 MSTORE PUSH1 0x40 SWAP1 KECCAK256 SLOAD PUSH1 0x1 PUSH1 0x1 PUSH1 0xA0 SHL SUB AND DUP2 JUMP JUMPDEST PUSH2 0x10D PUSH2 0x206 CALLDATASIZE PUSH1 0x4 PUSH2 0xA0C JUMP JUMPDEST PUSH2 0x467 JUMP JUMPDEST PUSH2 0x132 PUSH2 0x219 CALLDATASIZE PUSH1 0x4 PUSH2 0xA96 JUMP JUMPDEST PUSH2 0x477 JUMP JUMPDEST PUSH2 0x132 PUSH2 0x22C CALLDATASIZE PUSH1 0x4 PUSH2 0xA96 JUMP JUMPDEST PUSH2 0x619 JUMP JUMPDEST PUSH2 0x188 PUSH2 0x23F CALLDATASIZE PUSH1 0x4 PUSH2 0xA74 JUMP JUMPDEST PUSH2 0x7AF JUMP JUMPDEST PUSH2 0x257 PUSH2 0x252 CALLDATASIZE PUSH1 0x4 PUSH2 0xA74 JUMP JUMPDEST PUSH2 0x810 JUMP JUMPDEST PUSH1 0x40 DUP1 MLOAD SWAP3 DUP4 MSTORE PUSH1 0x20 DUP4 ADD SWAP2 SWAP1 SWAP2 MSTORE ADD PUSH2 0x121 JUMP JUMPDEST PUSH2 0x132 PUSH2 0x27A CALLDATASIZE PUSH1 0x4 PUSH2 0xA74 JUMP JUMPDEST PUSH2 0x921 JUMP JUMPDEST PUSH1 0x4 DUP2 DUP2 SLOAD DUP2 LT PUSH2 0x28F JUMPI PUSH1 0x0 DUP1 REVERT JUMPDEST PUSH1 0x0 SWAP2 DUP3 MSTORE PUSH1 0x20 SWAP1 SWAP2 KECCAK256 ADD SLOAD PUSH1 0x1 PUSH1 0x1 PUSH1 0xA0 SHL SUB AND SWAP1 POP DUP2 JUMP JUMPDEST PUSH1 0x0 SLOAD PUSH1 0x1 PUSH1 0x1 PUSH1 0xA0 SHL SUB AND CALLER EQ PUSH2 0x2DC JUMPI PUSH1 0x40 MLOAD PUSH3 0x461BCD PUSH1 0xE5 SHL DUP2 MSTORE PUSH1 0x4 ADD PUSH2 0x2D3 SWAP1 PUSH2 0xAC0 JUMP JUMPDEST PUSH1 0x40 MLOAD DUP1 SWAP2 SUB SWAP1 REVERT JUMPDEST PUSH2 0x2E6 PUSH1 0x0 PUSH2 0x9BC JUMP JUMPDEST JUMP JUMPDEST PUSH1 0x0 SLOAD PUSH1 0x1 PUSH1 0x1 PUSH1 0xA0 SHL SUB AND CALLER EQ PUSH2 0x312 JUMPI PUSH1 0x40 MLOAD PUSH3 0x461BCD PUSH1 0xE5 SHL DUP2 MSTORE PUSH1 0x4 ADD PUSH2 0x2D3 SWAP1 PUSH2 0xAC0 JUMP JUMPDEST PUSH1 0x1 PUSH1 0x1 PUSH1 0xA0 SHL SUB SWAP2 DUP3 AND PUSH1 0x0 SWAP1 DUP2 MSTORE PUSH1 0x1 PUSH1 0x20 MSTORE PUSH1 0x40 SWAP1 KECCAK256 DUP1 SLOAD PUSH1 0x1 PUSH1 0x1 PUSH1 0xA0 SHL SUB NOT AND SWAP2 SWAP1 SWAP3 AND OR SWAP1 SSTORE JUMP JUMPDEST PUSH1 0x0 DUP1 JUMPDEST PUSH1 0x3 SLOAD DUP2 LT ISZERO PUSH2 0x3A1 JUMPI DUP3 PUSH1 0x1 PUSH1 0x1 PUSH1 0xA0 SHL SUB AND PUSH1 0x3 DUP3 DUP2 SLOAD DUP2 LT PUSH2 0x36B JUMPI PUSH2 0x36B PUSH2 0xAF5 JUMP JUMPDEST PUSH1 0x0 SWAP2 DUP3 MSTORE PUSH1 0x20 SWAP1 SWAP2 KECCAK256 ADD SLOAD PUSH1 0x1 PUSH1 0x1 PUSH1 0xA0 SHL SUB AND EQ ISZERO PUSH2 0x38F JUMPI POP PUSH1 0x1 SWAP3 SWAP2 POP POP JUMP JUMPDEST DUP1 PUSH2 0x399 DUP2 PUSH2 0xB21 JUMP JUMPDEST SWAP2 POP POP PUSH2 0x344 JUMP JUMPDEST POP PUSH1 0x0 SWAP3 SWAP2 POP POP JUMP JUMPDEST PUSH1 0x0 DUP1 PUSH1 0x0 PUSH2 0x3B8 DUP6 PUSH2 0x810 JUMP JUMPDEST SWAP1 SWAP3 POP SWAP1 POP PUSH1 0x0 DUP3 PUSH2 0x3CB DUP4 PUSH1 0xA PUSH2 0xC20 JUMP JUMPDEST PUSH2 0x3D5 SWAP1 DUP8 PUSH2 0xC2C JUMP JUMPDEST PUSH2 0x3DF SWAP2 SWAP1 PUSH2 0xC4B JUMP JUMPDEST SWAP4 POP POP POP POP JUMPDEST SWAP3 SWAP2 POP POP JUMP JUMPDEST PUSH1 0x0 SLOAD PUSH1 0x1 PUSH1 0x1 PUSH1 0xA0 SHL SUB AND CALLER EQ PUSH2 0x415 JUMPI PUSH1 0x40 MLOAD PUSH3 0x461BCD PUSH1 0xE5 SHL DUP2 MSTORE PUSH1 0x4 ADD PUSH2 0x2D3 SWAP1 PUSH2 0xAC0 JUMP JUMPDEST PUSH1 0x4 DUP1 SLOAD PUSH1 0x1 DUP2 ADD DUP3 SSTORE PUSH1 0x0 SWAP2 SWAP1 SWAP2 MSTORE PUSH32 0x8A35ACFBC15FF81A39AE7D344FD709F28E8600B4AA8C65C6B64BFE7FE36BD19B ADD DUP1 SLOAD PUSH1 0x1 PUSH1 0x1 PUSH1 0xA0 SHL SUB NOT AND PUSH1 0x1 PUSH1 0x1 PUSH1 0xA0 SHL SUB SWAP3 SWAP1 SWAP3 AND SWAP2 SWAP1 SWAP2 OR SWAP1 SSTORE JUMP JUMPDEST PUSH1 0x3 DUP2 DUP2 SLOAD DUP2 LT PUSH2 0x28F JUMPI PUSH1 0x0 DUP1 REVERT JUMPDEST PUSH2 0x48A DUP3 PUSH9 0x2B5E3AF16B1880000 PUSH2 0x3AA JUMP JUMPDEST DUP2 LT ISZERO PUSH2 0x4D9 JUMPI PUSH1 0x40 MLOAD PUSH3 0x461BCD PUSH1 0xE5 SHL DUP2 MSTORE PUSH1 0x20 PUSH1 0x4 DUP3 ADD MSTORE PUSH1 0x1B PUSH1 0x24 DUP3 ADD MSTORE PUSH32 0x596F75206861766520746F20706179206F7665722035305553442E0000000000 PUSH1 0x44 DUP3 ADD MSTORE PUSH1 0x64 ADD PUSH2 0x2D3 JUMP JUMPDEST PUSH2 0x4E2 DUP3 PUSH2 0x7AF JUMP JUMPDEST PUSH2 0x52E JUMPI PUSH1 0x40 MLOAD PUSH3 0x461BCD PUSH1 0xE5 SHL DUP2 MSTORE PUSH1 0x20 PUSH1 0x4 DUP3 ADD MSTORE PUSH1 0x1A PUSH1 0x24 DUP3 ADD MSTORE PUSH32 0x5468697320746F6B656E206973206E6F7420616C6C6F7765642E000000000000 PUSH1 0x44 DUP3 ADD MSTORE PUSH1 0x64 ADD PUSH2 0x2D3 JUMP JUMPDEST PUSH1 0x40 MLOAD PUSH4 0x23B872DD PUSH1 0xE0 SHL DUP2 MSTORE CALLER PUSH1 0x4 DUP3 ADD MSTORE ADDRESS PUSH1 0x24 DUP3 ADD MSTORE PUSH1 0x44 DUP2 ADD DUP3 SWAP1 MSTORE PUSH1 0x1 PUSH1 0x1 PUSH1 0xA0 SHL SUB DUP4 AND SWAP1 PUSH4 0x23B872DD SWAP1 PUSH1 0x64 ADD PUSH1 0x20 PUSH1 0x40 MLOAD DUP1 DUP4 SUB DUP2 PUSH1 0x0 DUP8 GAS CALL ISZERO DUP1 ISZERO PUSH2 0x581 JUMPI RETURNDATASIZE PUSH1 0x0 DUP1 RETURNDATACOPY RETURNDATASIZE PUSH1 0x0 REVERT JUMPDEST POP POP POP POP PUSH1 0x40 MLOAD RETURNDATASIZE PUSH1 0x1F NOT PUSH1 0x1F DUP3 ADD AND DUP3 ADD DUP1 PUSH1 0x40 MSTORE POP DUP2 ADD SWAP1 PUSH2 0x5A5 SWAP2 SWAP1 PUSH2 0xC6D JUMP JUMPDEST POP PUSH1 0x1 PUSH1 0x1 PUSH1 0xA0 SHL SUB DUP3 AND PUSH1 0x0 SWAP1 DUP2 MSTORE PUSH1 0x2 PUSH1 0x20 MSTORE PUSH1 0x40 DUP2 KECCAK256 DUP1 SLOAD DUP4 SWAP3 SWAP1 PUSH2 0x5CE SWAP1 DUP5 SWAP1 PUSH2 0xC8F JUMP JUMPDEST SWAP1 SWAP2 SSTORE POP POP PUSH1 0x3 DUP1 SLOAD PUSH1 0x1 DUP2 ADD DUP3 SSTORE PUSH1 0x0 SWAP2 SWAP1 SWAP2 MSTORE PUSH32 0xC2575A0E9E593C00F959F8C92F12DB2869C3395A3B0502D05E2516446F71F85B ADD DUP1 SLOAD PUSH1 0x1 PUSH1 0x1 PUSH1 0xA0 SHL SUB NOT AND CALLER OR SWAP1 SSTORE POP POP JUMP JUMPDEST PUSH1 0x0 SLOAD PUSH1 0x1 PUSH1 0x1 PUSH1 0xA0 SHL SUB AND CALLER EQ PUSH2 0x643 JUMPI PUSH1 0x40 MLOAD PUSH3 0x461BCD PUSH1 0xE5 SHL DUP2 MSTORE PUSH1 0x4 ADD PUSH2 0x2D3 SWAP1 PUSH2 0xAC0 JUMP JUMPDEST PUSH1 0x1 PUSH1 0x1 PUSH1 0xA0 SHL SUB DUP3 AND PUSH1 0x0 SWAP1 DUP2 MSTORE PUSH1 0x2 PUSH1 0x20 MSTORE PUSH1 0x40 SWAP1 KECCAK256 SLOAD DUP2 GT ISZERO PUSH2 0x6B7 JUMPI PUSH1 0x40 MLOAD PUSH3 0x461BCD PUSH1 0xE5 SHL DUP2 MSTORE PUSH1 0x20 PUSH1 0x4 DUP3 ADD MSTORE PUSH1 0x23 PUSH1 0x24 DUP3 ADD MSTORE PUSH32 0x596F7520646F6E277420686176652074686520616D6F756E74206F6620746F6B PUSH1 0x44 DUP3 ADD MSTORE PUSH3 0x32B717 PUSH1 0xE9 SHL PUSH1 0x64 DUP3 ADD MSTORE PUSH1 0x84 ADD PUSH2 0x2D3 JUMP JUMPDEST PUSH2 0x6C0 DUP3 PUSH2 0x7AF JUMP JUMPDEST PUSH2 0x70C JUMPI PUSH1 0x40 MLOAD PUSH3 0x461BCD PUSH1 0xE5 SHL DUP2 MSTORE PUSH1 0x20 PUSH1 0x4 DUP3 ADD MSTORE PUSH1 0x1A PUSH1 0x24 DUP3 ADD MSTORE PUSH32 0x5468697320746F6B656E206973206E6F7420616C6C6F7765642E000000000000 PUSH1 0x44 DUP3 ADD MSTORE PUSH1 0x64 ADD PUSH2 0x2D3 JUMP JUMPDEST PUSH1 0x40 MLOAD PUSH4 0xA9059CBB PUSH1 0xE0 SHL DUP2 MSTORE CALLER PUSH1 0x4 DUP3 ADD MSTORE PUSH1 0x24 DUP2 ADD DUP3 SWAP1 MSTORE PUSH1 0x1 PUSH1 0x1 PUSH1 0xA0 SHL SUB DUP4 AND SWAP1 PUSH4 0xA9059CBB SWAP1 PUSH1 0x44 ADD PUSH1 0x20 PUSH1 0x40 MLOAD DUP1 DUP4 SUB DUP2 PUSH1 0x0 DUP8 GAS CALL ISZERO DUP1 ISZERO PUSH2 0x759 JUMPI RETURNDATASIZE PUSH1 0x0 DUP1 RETURNDATACOPY RETURNDATASIZE PUSH1 0x0 REVERT JUMPDEST POP POP POP POP PUSH1 0x40 MLOAD RETURNDATASIZE PUSH1 0x1F NOT PUSH1 0x1F DUP3 ADD AND DUP3 ADD DUP1 PUSH1 0x40 MSTORE POP DUP2 ADD SWAP1 PUSH2 0x77D SWAP2 SWAP1 PUSH2 0xC6D JUMP JUMPDEST POP PUSH1 0x1 PUSH1 0x1 PUSH1 0xA0 SHL SUB DUP3 AND PUSH1 0x0 SWAP1 DUP2 MSTORE PUSH1 0x2 PUSH1 0x20 MSTORE PUSH1 0x40 DUP2 KECCAK256 DUP1 SLOAD DUP4 SWAP3 SWAP1 PUSH2 0x7A6 SWAP1 DUP5 SWAP1 PUSH2 0xCA7 JUMP JUMPDEST SWAP1 SWAP2 SSTORE POP POP POP POP JUMP JUMPDEST PUSH1 0x0 DUP1 JUMPDEST PUSH1 0x4 SLOAD DUP2 LT ISZERO PUSH2 0x3A1 JUMPI DUP3 PUSH1 0x1 PUSH1 0x1 PUSH1 0xA0 SHL SUB AND PUSH1 0x4 DUP3 DUP2 SLOAD DUP2 LT PUSH2 0x7DA JUMPI PUSH2 0x7DA PUSH2 0xAF5 JUMP JUMPDEST PUSH1 0x0 SWAP2 DUP3 MSTORE PUSH1 0x20 SWAP1 SWAP2 KECCAK256 ADD SLOAD PUSH1 0x1 PUSH1 0x1 PUSH1 0xA0 SHL SUB AND EQ ISZERO PUSH2 0x7FE JUMPI POP PUSH1 0x1 SWAP3 SWAP2 POP POP JUMP JUMPDEST DUP1 PUSH2 0x808 DUP2 PUSH2 0xB21 JUMP JUMPDEST SWAP2 POP POP PUSH2 0x7B3 JUMP JUMPDEST PUSH1 0x1 PUSH1 0x1 PUSH1 0xA0 SHL SUB DUP1 DUP3 AND PUSH1 0x0 SWAP1 DUP2 MSTORE PUSH1 0x1 PUSH1 0x20 MSTORE PUSH1 0x40 DUP1 DUP3 KECCAK256 SLOAD DUP2 MLOAD PUSH4 0x3FABE5A3 PUSH1 0xE2 SHL DUP2 MSTORE SWAP2 MLOAD SWAP3 SWAP4 DUP5 SWAP4 SWAP2 AND SWAP2 DUP3 SWAP2 DUP5 SWAP2 DUP3 SWAP2 DUP3 SWAP2 DUP3 SWAP2 DUP3 SWAP2 DUP8 SWAP2 PUSH4 0xFEAF968C SWAP2 PUSH1 0x4 DUP1 DUP3 ADD SWAP3 PUSH1 0xA0 SWAP3 SWAP1 SWAP2 SWAP1 DUP3 SWAP1 SUB ADD DUP2 DUP7 GAS STATICCALL ISZERO DUP1 ISZERO PUSH2 0x879 JUMPI RETURNDATASIZE PUSH1 0x0 DUP1 RETURNDATACOPY RETURNDATASIZE PUSH1 0x0 REVERT JUMPDEST POP POP POP POP PUSH1 0x40 MLOAD RETURNDATASIZE PUSH1 0x1F NOT PUSH1 0x1F DUP3 ADD AND DUP3 ADD DUP1 PUSH1 0x40 MSTORE POP DUP2 ADD SWAP1 PUSH2 0x89D SWAP2 SWAP1 PUSH2 0xCD8 JUMP JUMPDEST SWAP5 POP SWAP5 POP SWAP5 POP SWAP5 POP SWAP5 POP PUSH1 0x0 DUP7 PUSH1 0x1 PUSH1 0x1 PUSH1 0xA0 SHL SUB AND PUSH4 0x313CE567 PUSH1 0x40 MLOAD DUP2 PUSH4 0xFFFFFFFF AND PUSH1 0xE0 SHL DUP2 MSTORE PUSH1 0x4 ADD PUSH1 0x20 PUSH1 0x40 MLOAD DUP1 DUP4 SUB DUP2 DUP7 GAS STATICCALL ISZERO DUP1 ISZERO PUSH2 0x8E7 JUMPI RETURNDATASIZE PUSH1 0x0 DUP1 RETURNDATACOPY RETURNDATASIZE PUSH1 0x0 REVERT JUMPDEST POP POP POP POP PUSH1 0x40 MLOAD RETURNDATASIZE PUSH1 0x1F NOT PUSH1 0x1F DUP3 ADD AND DUP3 ADD DUP1 PUSH1 0x40 MSTORE POP DUP2 ADD SWAP1 PUSH2 0x90B SWAP2 SWAP1 PUSH2 0xD28 JUMP JUMPDEST SWAP5 SWAP12 PUSH1 0xFF SWAP1 SWAP6 AND SWAP11 POP SWAP4 SWAP9 POP POP POP POP POP POP POP POP POP JUMP JUMPDEST PUSH1 0x0 SLOAD PUSH1 0x1 PUSH1 0x1 PUSH1 0xA0 SHL SUB AND CALLER EQ PUSH2 0x94B JUMPI PUSH1 0x40 MLOAD PUSH3 0x461BCD PUSH1 0xE5 SHL DUP2 MSTORE PUSH1 0x4 ADD PUSH2 0x2D3 SWAP1 PUSH2 0xAC0 JUMP JUMPDEST PUSH1 0x1 PUSH1 0x1 PUSH1 0xA0 SHL SUB DUP2 AND PUSH2 0x9B0 JUMPI PUSH1 0x40 MLOAD PUSH3 0x461BCD PUSH1 0xE5 SHL DUP2 MSTORE PUSH1 0x20 PUSH1 0x4 DUP3 ADD MSTORE PUSH1 0x26 PUSH1 0x24 DUP3 ADD MSTORE PUSH32 0x4F776E61626C653A206E6577206F776E657220697320746865207A65726F2061 PUSH1 0x44 DUP3 ADD MSTORE PUSH6 0x646472657373 PUSH1 0xD0 SHL PUSH1 0x64 DUP3 ADD MSTORE PUSH1 0x84 ADD PUSH2 0x2D3 JUMP JUMPDEST PUSH2 0x9B9 DUP2 PUSH2 0x9BC JUMP JUMPDEST POP JUMP JUMPDEST PUSH1 0x0 DUP1 SLOAD PUSH1 0x1 PUSH1 0x1 PUSH1 0xA0 SHL SUB DUP4 DUP2 AND PUSH1 0x1 PUSH1 0x1 PUSH1 0xA0 SHL SUB NOT DUP4 AND DUP2 OR DUP5 SSTORE PUSH1 0x40 MLOAD SWAP2 SWAP1 SWAP3 AND SWAP3 DUP4 SWAP2 PUSH32 0x8BE0079C531659141344CD1FD0A4F28419497F9722A3DAAFE3B4186F6B6457E0 SWAP2 SWAP1 LOG3 POP POP JUMP JUMPDEST PUSH1 0x0 PUSH1 0x20 DUP3 DUP5 SUB SLT ISZERO PUSH2 0xA1E JUMPI PUSH1 0x0 DUP1 REVERT JUMPDEST POP CALLDATALOAD SWAP2 SWAP1 POP JUMP JUMPDEST DUP1 CALLDATALOAD PUSH1 0x1 PUSH1 0x1 PUSH1 0xA0 SHL SUB DUP2 AND DUP2 EQ PUSH2 0xA3C JUMPI PUSH1 0x0 DUP1 REVERT JUMPDEST SWAP2 SWAP1 POP JUMP JUMPDEST PUSH1 0x0 DUP1 PUSH1 0x40 DUP4 DUP6 SUB SLT ISZERO PUSH2 0xA54 JUMPI PUSH1 0x0 DUP1 REVERT JUMPDEST PUSH2 0xA5D DUP4 PUSH2 0xA25 JUMP JUMPDEST SWAP2 POP PUSH2 0xA6B PUSH1 0x20 DUP5 ADD PUSH2 0xA25 JUMP JUMPDEST SWAP1 POP SWAP3 POP SWAP3 SWAP1 POP JUMP JUMPDEST PUSH1 0x0 PUSH1 0x20 DUP3 DUP5 SUB SLT ISZERO PUSH2 0xA86 JUMPI PUSH1 0x0 DUP1 REVERT JUMPDEST PUSH2 0xA8F DUP3 PUSH2 0xA25 JUMP JUMPDEST SWAP4 SWAP3 POP POP POP JUMP JUMPDEST PUSH1 0x0 DUP1 PUSH1 0x40 DUP4 DUP6 SUB SLT ISZERO PUSH2 0xAA9 JUMPI PUSH1 0x0 DUP1 REVERT JUMPDEST PUSH2 0xAB2 DUP4 PUSH2 0xA25 JUMP JUMPDEST SWAP5 PUSH1 0x20 SWAP4 SWAP1 SWAP4 ADD CALLDATALOAD SWAP4 POP POP POP JUMP JUMPDEST PUSH1 0x20 DUP1 DUP3 MSTORE DUP2 DUP2 ADD MSTORE PUSH32 0x4F776E61626C653A2063616C6C6572206973206E6F7420746865206F776E6572 PUSH1 0x40 DUP3 ADD MSTORE PUSH1 0x60 ADD SWAP1 JUMP JUMPDEST PUSH4 0x4E487B71 PUSH1 0xE0 SHL PUSH1 0x0 MSTORE PUSH1 0x32 PUSH1 0x4 MSTORE PUSH1 0x24 PUSH1 0x0 REVERT JUMPDEST PUSH4 0x4E487B71 PUSH1 0xE0 SHL PUSH1 0x0 MSTORE PUSH1 0x11 PUSH1 0x4 MSTORE PUSH1 0x24 PUSH1 0x0 REVERT JUMPDEST PUSH1 0x0 PUSH1 0x0 NOT DUP3 EQ ISZERO PUSH2 0xB35 JUMPI PUSH2 0xB35 PUSH2 0xB0B JUMP JUMPDEST POP PUSH1 0x1 ADD SWAP1 JUMP JUMPDEST PUSH1 0x1 DUP2 DUP2 JUMPDEST DUP1 DUP6 GT ISZERO PUSH2 0xB77 JUMPI DUP2 PUSH1 0x0 NOT DIV DUP3 GT ISZERO PUSH2 0xB5D JUMPI PUSH2 0xB5D PUSH2 0xB0B JUMP JUMPDEST DUP1 DUP6 AND ISZERO PUSH2 0xB6A JUMPI SWAP2 DUP2 MUL SWAP2 JUMPDEST SWAP4 DUP5 SHR SWAP4 SWAP1 DUP1 MUL SWAP1 PUSH2 0xB41 JUMP JUMPDEST POP SWAP3 POP SWAP3 SWAP1 POP JUMP JUMPDEST PUSH1 0x0 DUP3 PUSH2 0xB8E JUMPI POP PUSH1 0x1 PUSH2 0x3E5 JUMP JUMPDEST DUP2 PUSH2 0xB9B JUMPI POP PUSH1 0x0 PUSH2 0x3E5 JUMP JUMPDEST DUP2 PUSH1 0x1 DUP2 EQ PUSH2 0xBB1 JUMPI PUSH1 0x2 DUP2 EQ PUSH2 0xBBB JUMPI PUSH2 0xBD7 JUMP JUMPDEST PUSH1 0x1 SWAP2 POP POP PUSH2 0x3E5 JUMP JUMPDEST PUSH1 0xFF DUP5 GT ISZERO PUSH2 0xBCC JUMPI PUSH2 0xBCC PUSH2 0xB0B JUMP JUMPDEST POP POP PUSH1 0x1 DUP3 SHL PUSH2 0x3E5 JUMP JUMPDEST POP PUSH1 0x20 DUP4 LT PUSH2 0x133 DUP4 LT AND PUSH1 0x4E DUP5 LT PUSH1 0xB DUP5 LT AND OR ISZERO PUSH2 0xBFA JUMPI POP DUP2 DUP2 EXP PUSH2 0x3E5 JUMP JUMPDEST PUSH2 0xC04 DUP4 DUP4 PUSH2 0xB3C JUMP JUMPDEST DUP1 PUSH1 0x0 NOT DIV DUP3 GT ISZERO PUSH2 0xC18 JUMPI PUSH2 0xC18 PUSH2 0xB0B JUMP JUMPDEST MUL SWAP4 SWAP3 POP POP POP JUMP JUMPDEST PUSH1 0x0 PUSH2 0xA8F DUP4 DUP4 PUSH2 0xB7F JUMP JUMPDEST PUSH1 0x0 DUP2 PUSH1 0x0 NOT DIV DUP4 GT DUP3 ISZERO ISZERO AND ISZERO PUSH2 0xC46 JUMPI PUSH2 0xC46 PUSH2 0xB0B JUMP JUMPDEST POP MUL SWAP1 JUMP JUMPDEST PUSH1 0x0 DUP3 PUSH2 0xC68 JUMPI PUSH4 0x4E487B71 PUSH1 0xE0 SHL PUSH1 0x0 MSTORE PUSH1 0x12 PUSH1 0x4 MSTORE PUSH1 0x24 PUSH1 0x0 REVERT JUMPDEST POP DIV SWAP1 JUMP JUMPDEST PUSH1 0x0 PUSH1 0x20 DUP3 DUP5 SUB SLT ISZERO PUSH2 0xC7F JUMPI PUSH1 0x0 DUP1 REVERT JUMPDEST DUP2 MLOAD DUP1 ISZERO ISZERO DUP2 EQ PUSH2 0xA8F JUMPI PUSH1 0x0 DUP1 REVERT JUMPDEST PUSH1 0x0 DUP3 NOT DUP3 GT ISZERO PUSH2 0xCA2 JUMPI PUSH2 0xCA2 PUSH2 0xB0B JUMP JUMPDEST POP ADD SWAP1 JUMP JUMPDEST PUSH1 0x0 DUP3 DUP3 LT ISZERO PUSH2 0xCB9 JUMPI PUSH2 0xCB9 PUSH2 0xB0B JUMP JUMPDEST POP SUB SWAP1 JUMP JUMPDEST DUP1 MLOAD PUSH10 0xFFFFFFFFFFFFFFFFFFFF DUP2 AND DUP2 EQ PUSH2 0xA3C JUMPI PUSH1 0x0 DUP1 REVERT JUMPDEST PUSH1 0x0 DUP1 PUSH1 0x0 DUP1 PUSH1 0x0 PUSH1 0xA0 DUP7 DUP9 SUB SLT ISZERO PUSH2 0xCF0 JUMPI PUSH1 0x0 DUP1 REVERT JUMPDEST PUSH2 0xCF9 DUP7 PUSH2 0xCBE JUMP JUMPDEST SWAP5 POP PUSH1 0x20 DUP7 ADD MLOAD SWAP4 POP PUSH1 0x40 DUP7 ADD MLOAD SWAP3 POP PUSH1 0x60 DUP7 ADD MLOAD SWAP2 POP PUSH2 0xD1C PUSH1 0x80 DUP8 ADD PUSH2 0xCBE JUMP JUMPDEST SWAP1 POP SWAP3 SWAP6 POP SWAP3 SWAP6 SWAP1 SWAP4 POP JUMP JUMPDEST PUSH1 0x0 PUSH1 0x20 DUP3 DUP5 SUB SLT ISZERO PUSH2 0xD3A JUMPI PUSH1 0x0 DUP1 REVERT JUMPDEST DUP2 MLOAD PUSH1 0xFF DUP2 AND DUP2 EQ PUSH2 0xA8F JUMPI PUSH1 0x0 DUP1 REVERT INVALID LOG2 PUSH5 0x6970667358 0x22 SLT KECCAK256 EXTCODECOPY 0xC0 0x2E SELFDESTRUCT 0x26 PUSH14 0xCC6DC8F48E67B8FBA7E3E9058D0B 0xCE SWAP14 CALLDATACOPY PUSH16 0x315A5D71433ABA6564736F6C63430008 EXP STOP CALLER ","sha1":"ca29ecd576bceefbd7afd16fadd6f98fee2a037c","source":"// SPDX-License-Identifier: MIT\npragma solidity ^0.8.0;\n\nimport \"@openzeppelin/contracts/access/Ownable.sol\";\nimport \"@openzeppelin/contracts/token/ERC20/IERC20.sol\"; // to create my own token or make available the token on smart contract\nimport \"@chainlink/contracts/src/v0.8/interfaces/AggregatorV3Interface.sol\"; // to get current rate of currencies\n\ncontract CryptCurrencyRate is Ownable {\n    // Basically most of variables are from _token\n\n    mapping(address => address) public tokenPriceFeeds;\n    mapping(address => uint256) public payedTokenAmount;\n    address[] public customers;\n    address[] public allowedTokens;\n\n    function allowToken(address _token) public onlyOwner {\n        allowedTokens.push(_token);\n    }\n\n    function tokenIsAllowed(address _token) public returns (bool) {\n        for (uint256 index = 0; index < allowedTokens.length; index++) {\n            if (allowedTokens[index] == _token) {\n                return true;\n            }\n        }\n        return false;\n    }\n\n    function setPriceFeed(address _token, address _priceFeed) public onlyOwner {\n        tokenPriceFeeds[_token] = _priceFeed;\n    }\n\n    function getTokenValue(address _token)\n        public\n        view\n        returns (uint256, uint256)\n    {\n        address priceFeedAddress = tokenPriceFeeds[_token];\n        AggregatorV3Interface priceFeed = AggregatorV3Interface(\n            priceFeedAddress\n        );\n        (\n            uint80 roundID,\n            int256 price,\n            uint256 startedAt,\n            uint256 timeStamp,\n            uint80 answeredInRound\n        ) = priceFeed.latestRoundData();\n        uint256 decimal = uint256(priceFeed.decimals());\n        return (uint256(price), decimal);\n    }\n\n    // In solidity, we can't use decimal\n    function getConvertionRate(address _token, uint256 _amount)\n        public\n        view\n        returns (uint256)\n    {\n        //uint256 productPrice = 50 * 10 ** 18;\n\n        (uint256 price, uint256 decimal) = getTokenValue(_token);\n        uint256 need_token = (_amount * (10**decimal)) / price; // Don't make any decimal during calculating like '(_amount / price)*10**decimal'\n        return need_token;\n    }\n\n    function registerCustomer(address _token, uint256 _amount) public {\n        require(\n            _amount >= getConvertionRate(_token, 50 * 10**18),\n            \"You have to pay over 50USD.\"\n        );\n        require(tokenIsAllowed(_token), \"This token is not allowed.\");\n        IERC20(_token).transferFrom(msg.sender, address(this), _amount);\n        payedTokenAmount[_token] += _amount;\n        customers.push(msg.sender);\n    }\n\n    function getRevenue(address _token, uint256 _amount) public onlyOwner {\n        require(\n            _amount <= payedTokenAmount[_token],\n            \"You don't have the amount of token.\"\n        );\n        require(tokenIsAllowed(_token), \"This token is not allowed.\");\n        IERC20(_token).transfer(msg.sender, _amount);\n        payedTokenAmount[_token] -= _amount;\n    }\n\n    function customerIsAllowed(address _customer) public view returns (bool) {\n        for (uint256 index = 0; index < customers.length; index++) {\n            if (customers[index] == _customer) {\n                return true;\n            }\n        }\n        return false;\n    }\n}\n","sourcePath":"contracts/CryptCurrencyRate.sol","type":"contract","deployment":{"address":"0x8807a7d8805474F76EA35B56580c7F074dBe8758","chainid":"42","blockHeight":30279724}}